:020000040800F2
:10000000203C0020D5000008098200080D6300088C
:1000100000000000000000000000000000000000E0
:1000200000000000000000000000000057A70008CA
:100030000000000000000000C58D000869C800082D
:10004000E7000008E700000813940008E700000834
:10005000E70000089F2B0008AF2B0008C12B000809
:10006000E7000008E7000008E7000008712B00081F
:10007000E7000008E7000008E7000008E7000008C4
:10008000E7000008E7000008E700000800000000A3
:10009000E7000008E7000008E7000008E7000008A4
:1000A000E7000008E7000008E700000899D1000811
:1000B000E7000008AD93000800000000E70000081A
:1000C0000348854600F056FF004800479D0101089F
:1000D000203C00200448804704480047FEE7FEE734
:1000E000FEE7FEE7FEE7FEE7FDC80008C1000008E6
:1000F00030B50B46014600202022012409E00D46C0
:10010000D5409D4205D31D469540491B2546954047
:1001100040191546521E002DF1DC30BD70B500248B
:100120002546002801DA01244042002901DA012590
:100130004942FFF7DDFFAC4200D04042002C00D026
:10014000494270BDF0B51FB40646002082B0054696
:100150004024019100901BE0019922460F46304651
:1001600000F01CFD049A059B801A994110D310469B
:100170001946224600F002FD361A8F4101972246A9
:1001800001200021009F00F0F9FC38184D4100903B
:100190002046641E0028DFDC019B00982946324679
:1001A00007B0F0BDF0B51FB486B0002000900190FC
:1001B00002900698069980B204900798090C0204F0
:1001C0000014114307900027089D099806913E46A8
:1001D0003C4603900398A9B20204000C03900498D3
:1001E0002D0C154348430021224600F0C7FCC719D7
:1001F000714110340E46402CECDB3846029A00F078
:10020000BDFC009A019B8018009059410298019111
:10021000103002904028CCDB00980BB0F0BD10B538
:100220000F21C0B2490200F0DDFC10BD03460B43B4
:100230009B0703D009E008C9121F08C0042AFAD29C
:1002400003E00B780370401C491C521EF9D2704722
:10025000D2B201E00270401C491EFBD2704700225E
:10026000F6E710B513460A4604461946FFF7F0FFB5
:10027000204610BD10B5044605E00B780370401C05
:10028000002B00D0491C521EF7D2204610BD421C44
:100290000178401C0029FBD1801A704710B500225C
:1002A00000E0521C835C8C5CA34201D1002BF8D18E
:1002B000D8B2E1B2401A10BD30B505460020034661
:1002C00000E05B1C934205D2EC5CC85C201A01D1B3
:1002D000002CF6D130BD0321001D401E0378120210
:1002E0001A43491EF9D51046704700000FB400B5F7
:1002F0008DB009900B9010A900200091C0430A9086
:1003000000200C9006480690064807906A4609A807
:100310000F9900F08FFC0DB008BC04B01847000026
:10032000550C0008750C0008FFB50027FF4383B08B
:1003300000205C6801909E681D46A9697F1C049896
:1003400088470090296A88470028F6D10098401C09
:100350000CD0032040028443002E19DD600614D522
:1003600000982B2809D02D280FD103E00020C0438E
:1003700007B0F0BD012080020443A9697F1C0498E6
:100380008847761E0090002E02DD0098302803D0AA
:100390000598002825D035E0012040020443A969D2
:1003A000761E7F1C049888470090002E03DD782875
:1003B00005D0582803D00598002810D022E00598D1
:1003C000002801D010281DD1012040028443A969D2
:1003D000761E7F1C049888470090102002E00820B9
:1003E00000E00A2005900DE0012149020C43059A26
:1003F0000199761E514308180190A9697F1C049841
:1004000088470090002E05DD0599009800F0FCFB60
:100410000028E9DAE96904988847A00502D4012098
:10042000C043A5E7E00722D1600611D56005019819
:1004300000D5404229680A1D2A600968220501D5B5
:10044000087014E0220701D5088010E008600EE073
:100450002868011D29600068210502D501990170F5
:1004600005E02107019901D5018000E001603846CF
:100470007EE7F8B502464A40D40F42004B005208CE
:100480005B089A4202D20246084611464A0023D02F
:10049000C30D4A00DDB2120EAD1A202D35DA490225
:1004A0000126490AF6058A19002C00D05242202163
:1004B0004F1B1146B9402A411018C20D9A4221D053
:1004C000002C17D0012D08DCDA05801AD20F801914
:1004D000D207DBB200F0E8FBF8BDDA05801A012391
:1004E00040001B06C01880185A428018CA0F1043DB
:1004F000490007E04908C2071143DA05801A80194C
:100500004008801800F0C8FBF8BD61000122511AB4
:10051000001BF7E70122D2075140AAE70122D207C8
:100520005040A6E7024670B54A40D30FDB074000B3
:100530002DD04A002AD0010E140E00021202091911
:10054000400A520A8418E50104465443000A120A7C
:100550002E045043A4194219200CC543AA18120CAA
:100560000125AD03521C521912047F39240400D016
:10057000521C104301D44000491EC2B20C06C009EF
:100580002018401C4008802A02D003E0002070BDE3
:1005900040084000002900DA0020184370BD70B503
:1005A00002464A40D50F40004A00ED074008520875
:1005B000002814D0002A12D0C40DD30D410201200E
:1005C000C0055202490A520AE41A091812187D3469
:1005D000914201D3641C00E04900002C01DA0020A4
:1005E00070BD0023914201D3891A0343400849009A
:1005F0000028F7D100290AD0914202D10121C90770
:1006000005E0914201D2012101E00121C943E00549
:10061000C018401900F040FB70BD420005D04200F8
:10062000120E52428A4201DB00207047C9050818A9
:1006300070470000F0B507460846584087B0C00F25
:10064000049048000E46590040084908BC1A8841E9
:1006500005D2384631461E4617460B46024658001C
:10066000400810434CD0300D039040055900400D18
:10067000490D0590401A0290402872DA18030121B2
:10068000000B09050843019004980092002805D04A
:100690000199524200208841009201900298402125
:1006A0000A1A0199009800F069FA05460C466B4653
:1006B00007CB00F084FAC0197141039A0E0D002394
:1006C000D71756401A467A40164344D0049A002A57
:1006D0002DD0029A012A039A15DC1205C01A914105
:1006E00001263605001C7141D20F059ED2070093EA
:1006F000019202962A46234600F03BFB07B0F0BD6C
:1007000038463146FAE71605224A0F46B218C01A93
:10071000B74101210905001C4F4100187F411146D6
:1007200018187941E20F10436D19644113E0E20794
:100730006D0815436408C2071443039A0126120585
:10074000C01A91413605001C7141CE074008304364
:100750004908C01851412A46234600F0FDFACDE76A
:10076000FFE7049801224000C117121A00238B41B1
:1007700004983146C417381AA141EEE730B4012479
:10078000E407634030BC55E730B40124E40761401E
:1007900030BC4FE70000E0FFF0B51FB488B00B9904
:1007A0000998002448400999C00F49004908099157
:1007B000C0070B990090490049080B9109990898C6
:1007C000A64608431CD00B990A98084318D00998EC
:1007D00001244000420D4800410D09982405000302
:1007E000000B204309900B980003000B20430B9053
:1007F00050181C494018002201901446104605E08C
:10080000002001460DB0F0BD032801DA034600E0E8
:1008100003239C46C11A0AAE0AE05F0008ADED5BF7
:100820004F00F75B7D430027AA187C41491C5B1EE3
:100830006145F2DD410004AB5A522104120C0A4317
:10084000240C401C0828DFDB0198029000997046B8
:1008500001910090059B049A0799069800F089FA87
:10086000D0E700000DFCFFFFF0B50C465C4085B002
:10087000E40FE40703944C000026640859009446F2
:10088000490802460296224321D062460A431ED0FE
:100890006200570D4A000E032303550D0124024642
:1008A0002C492405781B1B0B360B40182343264389
:1008B000614600901C46501AB44103D30098401C76
:1008C000009002E0921800985B41002803DA0020B3
:1008D000014605B0F0BD0020012109050746864606
:1008E00011E064461D46141BB54106D36546521BF4
:1008F000B341744607430C43A646CD074008490858
:10090000284392185B4105460D43EAD1104618432F
:1009100013D06046194650407140084306D06046E7
:10092000101AB34106D20122002306E0002201235F
:10093000DB0702E00122D243531000987446010500
:10094000381C6141029C039D0019694100F004FAC2
:10095000BFE70000FD03000070B54B005B080343D8
:100960000BD04B005C0D002633466542B341D417D3
:10097000AD1AA34102DB0020014670BD12053018FC
:10098000514170BDC217C10F504010B54018CA0781
:100990009623002100F088F910BD10B5002296239F
:1009A000114600F081F910BD0EB5C217C10F5040BD
:1009B000CA0740180021054B0293019200910A4694
:1009C0000B4600F0D6F903B000BD00003304000070
:1009D0000EB505490291002100910A460B4601918E
:1009E00000F0C7F903B000BD33040000C20F41009E
:1009F00040020123400ADB05D207090EC0187F29F7
:100A000001DA00207047962903DC9623591AC84062
:100A100001E096398840002AF4D0404270474100F6
:100A200040020122400AD205090E80187F2901DA0E
:100A300000207047962903DC9622511AC84070475F
:100A4000963988407047000070B5CD0F4A00090301
:100A50000123090B1B0519430B4BED070024520D15
:100A60009A4201DA002070BD074B34339A4203DC0E
:100A70009A1A00F093F802E00449511888402C4378
:100A8000F1D0404270BD0000FF030000CDFBFFFF2E
:100A90004A0009030123090B1B051943094B10B533
:100AA000520D9A4201DA002010BD064B34339A42AF
:100AB00003DC9A1A00F072F810BD034951188840FF
:100AC00010BD0000FF030000CDFBFFFFC20FD207E7
:100AD000400040080BD0C10D0723DB01C9184002BC
:100AE0000905400A1143C20840071143704700201E
:100AF0000146704710B5002904DB0124E407404299
:100B00008C412146002B04DB1C460123DB075242AB
:100B1000A3418B4200D1824210BD000010B50029D4
:100B200004DB0124E40740428C412146002B04DB16
:100B30001C460123DB075242A341994200D1904257
:100B400010BD0000CB0FDB07490010B54908024675
:100B50000A4307D00A0D07240903E401090B121BFD
:100B6000002A01DC002010BDC900440F0C43C10065
:100B7000E018D205801800F08FF810BD10B5202ABB
:100B800004DB0146203A9140002010BD9140202313
:100B90009C1A0346E3401943904010BD10B5202A2B
:100BA00004DB0846203AD040002110BD0B46D3405C
:100BB000D0402024A21A91400843194610BD10B518
:100BC000202A06DBCB170846203A1041C1170B43F9
:100BD00006E00B461341D0402024A21A914008435E
:100BE000194610BD7F2801D9002207E0054B4208B5
:100BF0009A5CC00700D112091207120F0120904021
:100C000008407047B82001083A2800D23038202325
:100C100002469A43412A01D310463738884201D30D
:100C20000020C0437047000002681378511801602B
:100C30001846704710B5D1600449516104491162EA
:100C400000211161114600F0A7F910BD290C000820
:100C50001F0200084268002A08D001680B78491C6E
:100C6000002B03D0521E06C0184670470121C160F8
:100C7000881E70474268002A0BD0C3680168002BA9
:100C800007D183688B4204D0491E521C06C0002045
:100C900070470020C0437047002904DA401C490017
:100CA00001D140084000704770B40024050C05D104
:100CB0001024000402D1002921D01124050E01D1F5
:100CC00000020834050F01D10001241D850F01D158
:100CD0008000A41C002801DB4000641C002908D00F
:100CE00020252E1B0D46F540A14000D001212943AF
:100CF000084301061B1B000ADB1D02D5002070BC47
:100D00007047DB05181880180029F8DA401C4900E4
:100D1000F5D170BC40084000704710B541000DD0BF
:100D20004100090E962909DC7E290ADC07DB410215
:100D300005D0C00F7F21C007C905401810BD002095
:100D400010BD9622541A20210A1B01469140E04012
:100D5000FFF7A2FFA04010BD10B5002B08DA002459
:100D6000401C614192185B411A4301D14008400088
:100D700010BDF0B51FB482B005460C0003D0084684
:100D80000CF04CFA02E00CF049FA203002460090D8
:100D900021462846FFF7F2FE049B059A04460F46BB
:100DA00018431143084314D0184610431BD0009831
:100DB00040210A1A18460599FFF7F0FE05460E462F
:100DC000009A05990498FFF7D9FE084305D0012041
:100DD00004E02046394607B0F0BD0020C1170543A6
:100DE0000E432C43374300990E986305401A79054A
:100DF000E40A00220C43FD0A0A3002D50020014615
:100E0000E9E70105101969410C9C0D9D0019694124
:100E1000FFF7A2FFDFE7FEB500231A461B1A8A413F
:100E200003DB0020014603B0F0BD4A000D030121A1
:100E30002D0B0905520D0D43D10702D100186D414C
:100E4000521E5110FF31FF310131002704463E464A
:100E50003846009701910246012100200905FFF75D
:100E60009DFEC3197141F818324684468E464A41A8
:100E700061462846611A904104D36046241A954180
:100E800076461F46241900986D41401C0090342876
:100E9000E1DDF91930467041091BA84103D2002257
:100EA000D243134601E00022134601980105381C85
:100EB0007141FFF751FFB6E7F8B505464800400815
:100EC0000C46284304D06000184A400D904201DDD2
:100ED0002846F8BD15493539884210DC88420BDBBD
:100EE000290D200308432903014305D0E00F1049D1
:100EF000C00741180020F8BD00200146F8BD161AB1
:100F00004020821B28462146FFF738FE0746009105
:100F1000284621463246FFF741FE3A46009BFFF73E
:100F20001BFF3246FFF72AFEF8BD00003304000025
:100F30000000F03F4A0009030123090B1B05194378
:100F40000A4B10B5520D9A4202DA0020014610BD3C
:100F5000064B34339A4203DC9A1AFFF71FFE10BD8A
:100F6000034BD218FFF70AFE10BD0000FF0300007C
:100F7000CDFBFFFF064C0125064E05E0E36807CCDC
:100F80002B430C3C98471034B442F7D3FFF79CF83E
:100F90003C2F01085C2F0108F3B58DB000200A90AA
:100FA00001200B90002608460C300C46099062691F
:100FB000012109989047051E2ED0252D2DD0216A9C
:100FC0008847002818D06269012109989047216A52
:100FD00088470028F7D1411E62690998904700E0D0
:100FE000761CA1690D988847216A88470028F7D1A7
:100FF000E1690D988847DAE7A1690D9888470746A7
:10100000A84201D1761CD2E7E1690D9888477F1C80
:1010100002D10A98002877D049E1002762693D464D
:101020003946099890472A280CD16269012109980C
:101030009047012506E00A214F433F18303FEBD48B
:101040001020054362690121099890470146303913
:101050000A2903D29B498F42DEDCECE7E90600D483
:10106000994F6C280AD04C2810D0682824D06A28C0
:101070002ED074280CD07A280AD00DE062690121A4
:10108000099890476C2823D004211CE020200543B8
:101090006269012109989047A760656065284FD073
:1010A00026DC582839D01ADC452849D012DC2528FE
:1010B00034D04128B0D143E06269012109989047BA
:1010C000682802D008210D43E6E70120C002DEE7D0
:1010D0000220DCE7462833D047282CD130E05B28BB
:1010E00070D061282CD063286CD0642823D161E0B3
:1010F0006F284FD009DC662822D0672820D06928C5
:1011000026D06E2817D12EE0CDE070284DD0732860
:101110006FD075284ED078280DD154E0A1690D9874
:1011200088470546252800D16CE7E1690D98884776
:101130006D1C00D16DE7BAE00A224CE00A2252E0B1
:10114000012023466A46C0430D99C046C046A3E02D
:101150002846402108436060A807234601D50022A5
:1011600039E000223FE0E80700D020E72068011DB9
:1011700021600068290501D5067018E7290701D507
:10118000068014E7A90703D5F117066041600EE752
:1011900006600CE72846402108436060A807234604
:1011A00001D5082217E008221DE0484928460840DA
:1011B000606016E02846402108436060A807234687
:1011C000BCD5B9E715E02846402108436060A80770
:1011D00007D5234610220120C0430D99C046C046C2
:1011E0005AE0234610220120C0430D99FFF79CF8D6
:1011F00052E000210C910B460091632802D05B283D
:1012000007D043E0E80601D40120A060012000904F
:101210003CE062690121099890475E2805D10120D0
:101220000C9001466269099890472169002906D10E
:101230000B4601AA8F00491CD3510829FADB00286C
:1012400035D0216900290ED1C117C90E09184A11DC
:10125000930001AA9A1849094901411A012013680B
:1012600088400343136062690121099890475D2813
:10127000E5D10C98002808D0002001AB81005A5815
:10128000401CD2435A500828F8DB01AB012022460B
:10129000C0430D99C046C04600280ADA401C06D15A
:1012A0000B98002803D00020C0430FB0F0BD0A986F
:1012B000FBE7E90702D10A99491C0A913618002078
:1012C0000B9074E6CCCCCC0CFFFFFF7FF1F7FFFF57
:1012D00070B58C180578401C6B075B0F01D1037843
:1012E000401C2A1106D10278401C03E006780E70DB
:1012F000401C491C5B1EF9D12B0705D40023521E4C
:101300000DD40B70491CFAE70378401CCB1A921CD1
:1013100003E01D780D70491C5B1C521EF9D5A142DB
:10132000D8D3002070BD000038B5044606480549F2
:101330000068FEF7DDFE604300E0401E00900028DC
:10134000FBD138BD40420F0074010020F8B50446BF
:10135000006881688907890F012902D10168C907DE
:1013600022D18168114A10261140012500290ED191
:101370008168294381600120FFF7D6FF02F04AFF10
:1013800007460CE002F046FFC01B0A2807D9A06DF3
:101390003043A065E06D2843E0650120F8BD20687A
:1013A0000068C043C007EDD10020F8BD17000080E1
:1013B000F0B589B00C4607461022002168460EF0B1
:1013C000F5FF6946224608460CF055FD6846007850
:1013D00087260106684600290FDA00214318425C7F
:1013E0005B785200DB091A434254491C0F29F5DB94
:1013F000C17B0246490071400DE000214318425C68
:101400005B785200DB091A434254491C0F29F5DB73
:10141000C17B02464900D173E21DF932516910299E
:1014200012D0017809061BD500214518435C6D7860
:101430005B00ED092B434354491C0F29F5DBC17BAD
:1014400003464900714019E000216218FF32013261
:101450005378455C491C6B4053701029F5DB26E03E
:1014600000214518435C6D785B00ED092B43435424
:10147000491C0F29F5DBC17B03464900D973E11DE7
:1014800055698023FA316B54002500E05D5453699F
:101490005B1C5361102BF9D300216218FF3201321B
:1014A0005378455C491C6B4053701029F5DB0021D3
:1014B00062181046FF32E0300132437C5278491CFA
:1014C000534043741029F3DB21461022F13104A864
:1014D0000EF054FF2246394604A80CF0CCFC102232
:1014E000002168460EF062FF09B0F0BD10B5044659
:1014F00010220021F1300EF059FFFF20002115309D
:101500000151F02220460EF051FF10BD0B4610B5E0
:101510000246102118460CF0D9FC10BDF0B5044667
:10152000FF308BB00F4601300890E11D4069FA3161
:101530000091103915460791002843D010210E1A4A
:10154000AE4200D316460099B2B2401839460EF0AA
:1015500015FF0898089940698019486110283AD306
:10156000B54238D0002162181046FF32E030013217
:10157000437C5278491C534043741029F3DB07998C
:10158000224608460CF077FCBF19AD1B1AE000207C
:101590002118E0314A7C3B5C401C5A404A741028B8
:1015A000F6DB102202A807990EF0E8FE02A92246F7
:1015B00008460CF060FC102202A907980EF0DEFE2F
:1015C000103D1037102DE2D8AAB2394600980EF01F
:1015D000D5FE089845610BB0F0BD0000FFB5FF488F
:1015E000A1B0C078FE4C2D9E2E9D012811D1FB4844
:1015F0000021C170E3622A9820632B9860632198D0
:101600002062229860622398A0622C98E663256489
:10161000A0631846E16AFEF72CFF0021C943FEF7DC
:10162000FCFF0746216B2A98FEF723FF0021C943E0
:10163000FEF7F3FF2A90616B2B98FEF71AFF00214B
:10164000C943FEF7EAFF2B90216A00912198FEF72B
:1016500010FF0021C943FEF7E0FF0099FEF709FFE4
:101660000021C943FEF7D9FF0099FEF702FF0021D0
:10167000C943FEF7D2FF2190A16B00912C98FEF791
:10168000F8FE0021C943FEF7C8FF0099FEF7F1FEFE
:101690000021C943FEF7C1FF0099FEF7EAFE0021D1
:1016A000C943FEF7BAFF2C90E7622A9820632B9873
:1016B000606321982062229860622398A0622C982F
:1016C000E6632564A063C54CE16E03910846FEF70E
:1016D00029FF1D90216F02910398FEF723FF0E90C2
:1016E000616F01910398FEF71DFF0D90A16F0398A4
:1016F0000C46FEF717FF0C9002990846FEF712FF02
:101700000B9001990298FEF70DFF0A90214602986E
:10171000FEF708FF019909900846FEF703FF0890BD
:1017200021460198FEF7FEFE214607900846FEF787
:10173000F9FE2B9906900846FEF7F4FE2A990090D0
:101740000846FEF7EFFE044639460846FEF7EAFE75
:101750002146FEF78EFE0099FEF78BFE0EF02EF965
:10176000044601463846FEF7DDFE249021462A98BD
:10177000FEF7D8FE2A9021462B98FEF7D3FE294685
:101780002B900846FEF7CEFE074631460846FEF788
:10179000C9FE2C9904460846FEF7C4FE2146FEF712
:1017A00068FE3946FEF765FE0EF008F9044601466C
:1017B0002C98FEF7B7FE2C9021463046FEF7B2FE7D
:1017C0002D9021462846FEF7ADFE2E900D990998E2
:1017D000FEF74FFE04461F9001212E98FEF71DFFD5
:1017E0001C9021461B90FEF79DFEFFF76FF91991A3
:1017F0001A900C990A98FEF78DFE04461E9001215E
:101800002D98FEF70AFF189021461790FEF78AFEE2
:10181000FFF75CF9064615910698FFF757F904465D
:101820000D4605910898FFF751F900226D4B039181
:101830000290FEF7A9FF2B462246FEF79FFF0546C2
:101840000F460191009001212C98FEF7E6FE1290C0
:101850001190FFF73BF92A463B46FEF79DFF3246C3
:10186000159BFEF7E7FE199B1A9AFEF7E3FEFFF7BA
:1018700069F913900E990798FEF74CFE01461B98E4
:10188000FEF750FEFFF722F906460F46059D0B981E
:10189000FFF71CF90022534BFEF776FF22462B463A
:1018A00005910490FEF76AFF04460D461798FFF76E
:1018B0000DF922462B46FEF76FFF04460D460C99A4
:1018C0000A98FEF7D6FD01461198FEF72BFEFFF7AA
:1018D000FDF82B462246FEF7ADFE32463B46FEF7AC
:1018E000A9FEFFF72FF90646039B029A0599049873
:1018F000FEF744FF04460D4602911C98FFF7E6F8F8
:101900002B462246FEF748FF054604910E9907989C
:10191000FEF7AFFD01460E901898FEF703FE07464E
:101920000D990998FEF7F6FD01460D901298FEF705
:10193000F9FD3946FEF79DFDFFF7C8F82A46049BDE
:10194000FEF778FEFFF7FEF8054631460846FEF73B
:10195000E9FD139906460846FEF7E4FD3146FEF719
:1019600088FDFFF7B3F80FF069FAFFF7EBF80C907A
:1019700001210D98FEF751FE099001210E98FEF706
:101980004CFE07460B991D98FEF7C4FD0899FEF71B
:10199000C1FD0699FEF76DFD0A90012128460D9EB6
:1019A000FEF73BFE31460B90FEF7BCFDFFF78EF8CD
:1019B0000591064600980890019D01210C98FEF7BC
:1019C0002CFE0C90FFF782F82B46089AFEF7E4FEF7
:1019D0003246059BFEF72EFE06E00000880100203F
:1019E000880200200000E03FFFF7ACF805900E9958
:1019F0000B98FEF797FD05461E990C98FEF792FD91
:101A00002946FEF736FD0546029E0B98FFF75EF865
:101A100022463346FEF7C0FE04460E461F990C9838
:101A2000FEF780FDFFF752F822463346FEF702FE2E
:101A3000FFF788F8064629462E98FEF773FD044600
:101A400031462D98FEF76EFD2146FEF763FD0446F4
:101A500039462B98FEF766FD00900A992A98FEF702
:101A600061FD0099FEF756FD2146FEF702FD049048
:101A700031462C98FEF756FD044605992E98FEF740
:101A800051FD2146FEF746FD04460A992498FEF7CB
:101A900049FD064609992B98FEF744FD3146FEF7AD
:101AA00039FD2146FEF7E5FC089005992D98FEF7D3
:101AB00039FD044629462C98FEF734FD2146FEF7F1
:101AC00029FD044609992A98FEF72CFD054639465A
:101AD0002498FEF727FD2946FEF71CFD2146FEF758
:101AE000C8FC0590FD490498FEF71CFDFC4F3946E3
:101AF000FEF718FDFB4EF16FFEF7BBFC0546F067E5
:101B0000F6490898FEF70EFD3946FEF70BFD344600
:101B100080342168FEF7ADFC20600090EF49059805
:101B2000FEF700FD3946FEF7FDFC6168FEF7A1FCFB
:101B300007466060EC490498FEF7F4FC2199FEF733
:101B400098FC2946FEF795FC0546E7490898FEF7FC
:101B5000E9FC2299FEF78DFC0099FEF78AFC2290A1
:101B6000E1490598FEF7DEFC2399FEF782FC394631
:101B7000FEF77FFC2390B16F03910991FEF7D2FC31
:101B80000690716F029105912298FEF7CBFC0746F3
:101B900001212846C9074840316F01910891FEF79D
:101BA000C1FC3946FEF7B6FC0699FEF7B3FC0021EE
:101BB000C943FEF732FD206107900C9009992298E5
:101BC000FEF7B0FC0B9005992398FEF7ABFCF16E85
:101BD0000746009128460691FEF7A4FC3946FEF719
:101BE00048FC0B99FEF796FC0021C943FEF715FD52
:101BF000606104900D9028460999FEF793FC074612
:101C000008992398FEF78EFC064606992298FEF75F
:101C100089FC3146FEF77EFC3946FEF72AFC00219E
:101C2000C943FEF7FAFCA0610A90074628460599C9
:101C3000FEF778FC0B9008992298FEF773FC064695
:101C400006992398FEF76EFC3146FEF712FC0B99BD
:101C5000FEF760FC0021C943FEF7DFFCE061A34909
:101C60000B90FEF75FFC0999FEF703FC0646179000
:101C70009E482399FEF74EFC31461090FEF752FC29
:101C800009909A493846FEF74DFC0599FEF7F1FB9D
:101C90001890064695482299FEF73CFC314615906F
:101CA000FEF740FC074691490D98FEF73BFC08996A
:101CB000FEF7DFFB06461A908C492846FEF72EFCFD
:101CC00031461190FEF72EFC064688490C98FEF727
:101CD00029FC0699FEF7CDFB84491B90FEF722FCF8
:101CE0003146FEF7C6FB3946FEF7C3FB0999FEF7FE
:101CF000C0FB0021C943FEF790FC206219901799A0
:101D00001598FEF70FFC05907849189E2398FEF76A
:101D1000B0FB0C9031461490FEF704FC069073491A
:101D20001A98FEF7FFFB0746704928461B9EFEF7F0
:101D3000A0FB0D9031460890FEF7F4FB3946FEF704
:101D400098FB0699FEF795FB0599FEF792FB00219B
:101D5000C943FEF762FC60620F90069017990898DD
:101D6000FEF7E0FB139061491898FEF7DBFB099042
:101D70001A991098FEF7D6FB07465C491B9E2298DD
:101D8000FEF777FB059031461290FEF7CBFB394604
:101D9000FEF76FFB0999FEF76CFB1399FEF769FBE1
:101DA0000021C943FEF739FCA0620E9008904F490C
:101DB0001798FEF7B7FB099018991198FEF7B2FB38
:101DC00007461A991298FEF7ADFB06461B99149820
:101DD000FEF7A8FB3146FEF74CFB3946FEF749FB00
:101DE0000999FEF746FB0021C943FEF716FCE062A5
:101DF0003E490990FEF796FB0399FEF73AFB014630
:101E000013901098FEF78EFB074638490898FEF7A6
:101E100089FB0299FEF72DFB014614901598FEF7F9
:101E200081FB064631490698FEF77CFB0199FEF7D7
:101E300020FB014617901198FEF774FB18902B4970
:101E40001998FEF76FFB0099FEF713FB27491690D0
:101E5000FEF768FB1899FEF70CFB3146FEF709FB0D
:101E60003946FEF706FB0021C943FEF7D6FB206387
:101E7000189013991598FEF755FB074614990C987E
:101E8000FEF750FB069019491798FEF74BFB0646E4
:101E900016990D98FEF746FB3146FEF7EAFA0699C9
:101EA000FEF7E7FA3946FEF7E4FA0021C943FEF7E8
:101EB000B4FB60630890069013990D98FEF732FB0F
:101EC00007460A491498FEF72DFB129017991098AF
:101ED000FEF728FB06461699059809E00AD7A33CA9
:101EE00052491D3C880100200000204252499D3B80
:101EF000FEF718FB3146FEF7BCFA1299FEF7B9FA65
:101F00003946FEF7B6FA0021C943FEF786FBA06307
:101F10000D901290FE491398FEF704FB109014994F
:101F20001198FEF7FFFA074617990598FEF7FAFA97
:101F3000064616990C98FEF7F5FA3146FEF799FA1F
:101F40003946FEF796FA1099FEF793FA0021C94335
:101F5000FEF763FBE063EF491090FEF7E3FA0399A5
:101F6000FEF787FA06461790EA482399FEF7D2FA59
:101F700031461C90FEF7D6FA0C90E6491298FEF70F
:101F8000D1FA0299FEF775FA06461690E1482299B1
:101F9000FEF7C0FA31461290FEF7C4FA0746DD4953
:101FA0000698FEF7BFFA0199FEF763FA0646159008
:101FB000D8492846FEF7B2FA31461B90FEF7B2FA2E
:101FC0000646D4491898FEF7ADFA0099FEF751FA83
:101FD000D0491490FEF7A6FA3146FEF74AFA394680
:101FE000FEF747FA0C99FEF744FA0021C943FEF7C1
:101FF00014FB2064059017991298FEF793FA069047
:10200000C449169E2398FEF734FA31461A90FEF71B
:1020100089FA0C90BF491598FEF784FA0746BD4926
:102020002846149EFEF725FA05463146FEF77AFA51
:102030003946FEF71EFA0C99FEF71BFA0699FEF7D1
:1020400018FA0021C943FEF7E8FA606413902846A5
:102050001799FEF767FA1290AE491698FEF762FAE2
:10206000054615991C98FEF75DFA0646A949149F86
:102070002298FEF7FEF939461D90FEF753FA3146D5
:10208000FEF7F7F92946FEF7F4F91299FEF7F1F990
:102090000021C943FEF7C1FAA06406909D49179834
:1020A000FEF740FA074616991B98FEF73BFA0646DC
:1020B00015991D98FEF736FA054614991A98FEF7F9
:1020C00031FA2946FEF7D5F93146FEF7D2F93946FD
:1020D000FEF7CFF90021C943FEF79FFAE0640C90A8
:1020E00001211898FEF799FA044601211998FEF784
:1020F00094FA0799FEF7BDF92146FEF7BAF905995A
:10210000FEF7B7F9FEF7E2FC0022834BFEF744FB33
:1021100004460D460098FEF7D9FC22462B46FEF7F2
:1021200089FAFEF70FFD7D490746C8660121089828
:10213000FEF773FA044601210F98FEF76EFA049930
:10214000FEF797F92146FEF794F91399FEF791F9F6
:10215000FEF7BCFC0022704BFEF71EFB05460E4648
:102160006E4C0198FEF7B2FC2A463346FEF762FA3F
:10217000FEF7E8FC0646206701210D98FEF74DFAB0
:10218000054601210E98FEF748FA0A99FEF771F903
:102190002946FEF76EF90699FEF76BF9FEF796FCF5
:1021A00000225D4BFEF7F8FA054601910298FEF712
:1021B0008DFC2A46019BFEF73DFAFEF7C3FC05465F
:1021C000606701211098FEF728FA00900121099814
:1021D000FEF723FA0B99FEF74CF90099FEF749F93F
:1021E0000C99FEF746F9FEF771FC00224A4BFEF708
:1021F000D3FA009001910398FEF768FC019B009AC6
:10220000FEF718FAFEF79EFC0146A067FEF78AF972
:10221000294601900846FEF785F9054631460846ED
:10222000FEF780F9064639460846FEF77BF9314647
:10223000FEF71FF92946FEF71CF90199FEF719F977
:102240000DF0BCFB07460146E06EFEF76BF9064653
:10225000E0663946206FFEF765F92067039039463E
:10226000606FFEF75FF9054660673946A06FFEF7BD
:1022700059F90746A06701213046FEF7CEF92946F5
:10228000FEF750F903250646AD0729460398FEF7E9
:1022900049F93946FEF746F93146FEF7EAF8FEF706
:1022A00015FC0BF091FE1E4A1E4BFEF775FAFEF769
:1022B00049FC30990860606F01210646FEF7ADF9D0
:1022C00031460490FEF72EF90646206F2946074650
:1022D000FEF728F93946FEF725F93146FEF71AF9D7
:1022E0007F21C905FEF7C5F8FEF7F0FB06460D464F
:1022F0000121E06EFEF791F93946FEF713F9074622
:102300000498A16FFEF70EF93946FEF7B2F80BE01C
:1023100052499D3B52491D3CE3365A3F88010020FB
:102320006666666666A64CC0FEF7D0FB32462B4654
:102330000CF01CFF264E254A3346FEF72DFAFEF719
:1023400001FC2F990860A16F00910846FEF7EAF89A
:102350000590616F04910846FEF7E4F8216F074687
:1023600008460191FEF7DEF8E16E05460846029147
:10237000FEF7D8F82946FEF77CF83946FEF7CAF88A
:102380000599FEF7C7F8FEF7A1FB04460D46009934
:102390000298FEF7C7F8074604990198FEF7C2F8BD
:1023A0003946FEF766F80121FEF737F9FEF78EFB96
:1023B0002B4622460CF0DAFE044A3346FEF7ECF9CF
:1023C000FEF7C0FB3199086025B0F0BD6666666611
:1023D00066A64C40F7B523498022097B214B511A50
:1023E000CDB2D97A1B7B8026F31A0A46DEB2871E4D
:1023F000491C0124C9B2761E3B000AF03EFF0906C3
:102400000C060C120C06062B3000164BAA4224D2E6
:10241000154CA05403E0134BB24215DB1DE0D972FA
:102420000DE0104EAD1EAA4217DA0F4B98540198DA
:102430005854491CC8B202991954401CF072002427
:1024400008480121817208E0074CA05401986054AB
:10245000491CE4E7034BAA42F6D32046FEBD022006
:10246000FEBD0000CC0300201E32002010B586B057
:1024700014216846FDF7F3FE0D48C26A01210A43A4
:10248000C262C06A05240840059004200090002024
:10249000029003200191240703906946204601F031
:1024A000EBFD01220421204601F0ADFE06B010BD77
:1024B0000010024000B50B4887B0C26A01210A43F0
:1024C000C262C06A01910840059019200002009084
:1024D00003200390029105206946000701F0CCFD1E
:1024E00007B000BD0010024000B50B4887B0C16ABC
:1024F00001221143C162C06A69461040059019204B
:1025000000020090032001900020029005200007A7
:1025100001F0B2FD07B000BD0010024000B587B069
:10252000FFF7A4FF0A48C26A01210A43C262C06AD7
:1025300001910840059019200002009003200390AB
:10254000029105206946000701F096FD07B000BD25
:102550000010024070B5052605463607002204210A
:10256000304601F050FE012003F0F8FA104C2080B4
:1025700001220421304601F046FE03F0AFFB208823
:102580000C49098848430C49FDF7C8FD6080608804
:10259000392148432F21FDF7ABFDA0806088392108
:1025A00048432F21FDF7A4FDFEF7F7F9A86070BDA1
:1025B0007C01002004030020FF0F00000178044884
:1025C000024A4368D154012101707047D32A002088
:1025D0003C03002010B503480EF0BEFF0249002066
:1025E000087010BDBD2500083C03002010B512483E
:1025F000017801290ED100210170104B42689C5CCA
:10260000012C08D00D2C09D00A2C07D07F2A0DD020
:10261000521C426010BD4160062009E0002AF9D03A
:102620009954416005480EF097F810BD41600420B0
:102630000DF008F810BD00003C030020D32A002054
:10264000F8B506460F460068FEF740FA044600203B
:102650000D46385EFEF7A8F90022054BFEF79CF800
:1026600022462B46FDF7E6FFFEF76CFA3060F8BD18
:10267000008076403EB50D4C6946A2790A70E27D35
:102680008A70C870606B0AF069F90190E06B029083
:10269000A07E69464870E07C07F01AF8618CE06B18
:1026A0004143081AA16D4018A0653EBDCC0300202F
:1026B000FFB5044689B00020039008900690218958
:1026C0001646002915D00190626904922069002AFB
:1026D00004D000290FD00A4692B20392002900D0FC
:1026E0000E46E168884215D3039A61688018081A7B
:1026F00011E00220E7E722686568135C471CAF42DF
:1027000002D3451B6D1C00E03D46525D1202921C37
:102710009A18E1E700200199751807950C994D4327
:10272000854201D2002102E00799FDF7E1FCC8B221
:102730000199884208D9217FCA0700D106980690DE
:10274000880701D5019800E00698002E6AD0049908
:10275000491908186168884264D8002798E00398EE
:1027600008186168884200D3401A20612189002935
:1027700011D121680E546168401C814200D8401A72
:102780002268310A11546168401C814200D8401A05
:102790006169891C616161680D1AB54200D33546D3
:1027A000B5420DD0B54202D2217F002908D0002DBC
:1027B0006AD0217FCA0730D02189002913D019E0BF
:1027C00039460A9A71438918226810182A46FDF77B
:1027D0002DFD60694019606107990895002089B254
:1027E000751B039140E02368FF22811E5A54216823
:1027F000401E0A54606940196061002008902189D8
:10280000354600292AD1206805702168280A4870B9
:1028100061690220891C616120E089071ED5218938
:10282000002902D000200DB0F0BD2168821E8D5419
:102830002268290A431ED15439460A9A71438918DD
:10284000226810182A46FDF7F1FC606940196061A2
:102850000895A069751B401CA061D4E7019969180F
:1028600089B2039100212161002D0DD0089A0A99A7
:102870003B46891822687343101859182A46FDF7F9
:10288000D5FC606940196061A069401C7F1CA06193
:102890000C982169874200D261E7019808186168A5
:1028A000884200D3401A21684018BCE710B5029C4A
:1028B00001600021C1600161416142608161038169
:1028C0000477A00703D5002B01D0481E10BD0020BF
:1028D00010BD0000F0B503890022002B09D00023B1
:1028E00000240C804469002C58D00289002A02D0B0
:1028F0000DE00223F4E7C26804684668A55C571C33
:10290000B74200D3921B521CA25C1202AA1894B2C6
:102910000C80027FD50729D0920727D4204A944201
:1029200002D10289002A0AD0C468026994421DD9E2
:102930000289002A1AD045682C1B944216D244689A
:10294000C2684569A21AAA1A42610022C2600289BD
:10295000002A0AD10268012C157802D86442641C4E
:1029600000E00124125D1202AA180A80C5684468BA
:10297000EA18A24200D3121B06680F889219466912
:10298000FF18F61B466106D009886918C918A142CC
:1029900000D3091BC1608169491E81611046F0BDE9
:1029A000FFFF0000F0B503890022002B0AD00027AA
:1029B00000230B804369002B42D00389C268002B9F
:1029C00002D00DE00227F3E705684468531CAE5CB3
:1029D000A342134600D31B1B5B1CEB5C1B02F318CA
:1029E0009CB20C80037FDD0723D09B0721D4154BBD
:1029F0009C4202D10389002B0AD0C46803699C421F
:102A000017D90389002B14D045682C1B9C4210D287
:102A100000221B041B0C0BD143680468012B02D855
:102A20005B425B1C00E00123E35C24781B021B1962
:102A30000B80D1194268914200D3891A00680A18A4
:102A40001046F0BDFFFF0000FFB5002085B00090EC
:102A5000054606460190002477000698C15B0120D8
:102A6000A04001422AD028190C210390484307991D
:102A70000958002922D007994118082002910856C8
:102A8000021100070117059840B207F024F800284A
:102A900014D00298407A010108980818C0680028EC
:102AA00004D00198401CC0B2019007E0009A0E9932
:102AB000039888540098401CC0B20090641CE4B293
:102AC000102CCAD31035761CEDB2F6B2482DC2D305
:102AD0000F9901980870009809B0F0BD30B50A4C04
:102AE00003680A4DA34205D90B68AB4202DD138887
:102AF0005B1C13800068A84205DD0868A04202D96B
:102B00001088401E108030BD00002AC300002A43F8
:102B100030B587B014216846FDF7A1FB0320019072
:102B20000020029003204003104C0090E06A012135
:102B30000843E062E06A0840059005206946000706
:102B400001F09AFAE06A40084000E062606B0125FB
:102B5000AD052843606300F095FF00F0A3FF00F08F
:102B600099FF606BA843606307B030BD001002405E
:102B700010B50EF093FC10BD10B504686360836857
:102B8000102B036803D099600068C26010BD9A6082
:102B90000068C16010BD10B503F040F910BD10B55C
:102BA000012001F05DFA022001F05AFA10BD10B5C3
:102BB000042001F055FA082001F052FA10BD00007F
:102BC00010B5102001F04CFA202001F049FA402005
:102BD00001F046FA802001F043FAFF20013001F0B5
:102BE0003FFA0120400201F03BFA0120800201F08F
:102BF00037FA0120C00201F033FA0120000301F08E
:102C00002FFA0120400301F02BFA084948694004DB
:102C100006D5074A012010608003486101F008FAD8
:102C20000120C00301F01CFA10BD000000040140A7
:102C30000003002000B50E4887B0C26A02210A4393
:102C4000C262C06A0291084005900A480190480398
:102C500000906946084801F00FFA00220121072080
:102C600001F018FB072001F00BFB07B000BD0000CE
:102C7000001002400000311000040050FEE7000088
:102C800010B5084900224A6107494B684C15234397
:102C90004B604B68082423434B60C009C0010260AD
:102CA00010BD0000A80F00200020024010B5214AEE
:102CB00000219069C305204804D5416902231943C6
:102CC0004161911593699B0505D54369012423430F
:102CD00043616302194393695B0505D54369082481
:102CE00023434361E301194393691B0505D54369F8
:102CF0000424234343616302194393699B0405D56C
:102D000043691024234343616302194393699B037E
:102D100004D5446920231C43446119439369DB03B0
:102D200005D54369402423434361A00201439161D7
:102D300010BD000000200240A80F002070B505461D
:102D400001F068FA0646184C0AE0681C08D0002D0D
:102D500004D001F05FFA801BA84201D9032070BDA6
:102D6000A069C007F1D1A069800701D50220A06148
:102D7000A069C00511D4A06980050ED4A0694005E2
:102D80000BD4A069000508D4A069800405D4A0690B
:102D9000800302D4A069C00303D5FFF787FF012099
:102DA00070BD002070BD00000020024010B5044638
:102DB00001F020F90849002011C1012008600749ED
:102DC000054801F0B3F8002803D005A009F0C6FEBD
:102DD000FBE701F0E7F810BD1806002020000020F6
:102DE0006572726F7220696E204572617365206F23
:102DF0007065726174696F6E0A0D0000F8B5164651
:102E00000F460446002501F0F5F80DE0A8003A58F9
:102E10002146022001F0D0F8002803D005A009F0D7
:102E20009DFEFBE7241D6D1CB542EFDB01F0BAF8F7
:102E3000F8BD00006572726F7220696E205772696A
:102E40007465206F7065726174696F6E0A0D0000A1
:102E500070B50D46044601F0CDF821462A46022001
:102E600001F0AAF8002803D003A009F077FEFBE7E1
:102E700001F098F870BD00006572726F7220696E83
:102E8000205772697465206F7065726174696F6E26
:102E90000A0D000001680248416040687047000068
:102EA00020000020F8B50020084D04460746260201
:102EB000A95D012904D17019401C00F097F8AF55A5
:102EC000641CE4B2062CF2D3F8BD0000FC0800201C
:102ED00010B5FFF7E7FF0548C078022801D00328A6
:102EE00003D1024900204039886310BD64060020E8
:102EF00070B50E4C6079002801D0002070BD012013
:102F0000607100F03FF80A4D00220821284601F0C8
:102F10007AF900221021284601F075F901222021BA
:102F2000284601F070F9607970BD0000280000208B
:102F30000004005070B5114886B0C26A02210A43ED
:102F4000C262C06A032408400590082000256A4632
:102F500031C20B4E6946304601F08EF810206A46A9
:102F600031C26946304601F087F820206A4631C2F6
:102F70006946304601F080F806B070BD001002408E
:102F80000004005070B5164886B0C26A02210A4398
:102F9000C262C06A0124084005900820114E032532
:102FA00000900194694603950294304601F064F85C
:102FB000102000900194694603950294304601F078
:102FC0005BF82020009001946946039502943046F6
:102FD00001F052F804490020487106B070BD0000AD
:102FE000001002400004005028000020F0B5014607
:102FF00091B0401C02900978242909D102AA2A2103
:103000000DF000FF044602990CF0FEFA012802D0F0
:10301000002011B0F0BD204602AA2C2102940DF030
:10302000F1FEFEA10390FDF739F9FE4C2146103167
:103030000191091F0091091F25462035059100289F
:1030400016D0F9A10398FDF729F9264637466037CF
:10305000403600287DD0F6A10398FDF71FF900281F
:1030600078D0F5A10398FDF719F9002873D083E211
:1030700002AA2C2102980DF0C5FE060011D00146CF
:103080001422EF48FDF718F900280AD0221DEDA1FF
:103090003046059BFDF72AF914223146E848FDF732
:1030A000E9F802AA2C2102980DF0ACFE002804D009
:1030B000007841287DD00020207002AA2C2102989F
:1030C0000DF0A0FE00282CD00AA9009109AB07AA98
:1030D000E0A1FDF70BF90A98FDF754FCFDF7F6FCAB
:1030E0000022DF4BFDF7C0FB074605910998FDF76D
:1030F00049FCFDF7EBFC0022DA4BFDF7B5FB08902D
:103100000E460798FDF73EFCFDF7E0FC3346089AB3
:10311000FDF790FA3A46059BFDF78CFAFDF712FD94
:10312000206202AA2C2102980DF06CFE002804D027
:103130000078532800D04E20287102AA2C21029832
:103140000DF060FE002830D00DA90CAB0BAA009149
:1031500002E066E031E1CCE1C3A1FDF7C7F80D98CC
:10316000FDF710FCFDF7B2FC0022BD4BFDF77CFB28
:10317000074605910C98FDF705FCFDF7A7FC00221A
:10318000B84BFDF771FB064603910B98FDF7FAFB70
:10319000FDF79CFC3246039BFDF74CFA3A46059B33
:1031A000FDF748FAFDF7CEFCA06202AA2C21029896
:1031B00000E034E00DF026FE002804D00078572807
:1031C00000D04520287302AA2C2102980DF01AFE87
:1031D00000280AD00DF000FAFDF778FCA54AA64BAE
:1031E000FDF7DAFAFDF7AEFC206302AA2C21029863
:1031F0000DF008FE002802D00DF0EEF9606302AA7F
:103200002C2102980DF0FEFD002807D085491C31C5
:103210000B1F00911A1F99A1FDF768F8ACE101207E
:103220004AE702AA2C2102980DF0ECFD0390002839
:1032300011D0014614228248FDF73EF800280AD03A
:10324000221D80A1059B0398FDF750F814227C48AD
:103250000399FDF70FF802AA2C2102980DF0D2FD78
:1032600000282CD00FA900910EAB0DAA79A1FDF773
:103270003DF80F98FDF786FBFDF728FC0022784B00
:10328000FDF7F2FA069005910E98FDF77BFBFDF72E
:103290001DFC0022734BFDF7E7FA039108900D988F
:1032A000FDF770FBFDF712FC039B089AFDF7C2F9CE
:1032B000059B069AFDF7BEF9FDF744FC206202AAC1
:1032C0002C2102980DF09EFD002804D00078532890
:1032D00000D04E20287102AA2C2102980DF092FDF8
:1032E00000282CD00FA900910EAB0DAA5EA1FCF70F
:1032F000FDFF0F98FDF746FBFDF7E8FB0022584B5A
:10330000FDF7B2FA089005910E98FDF73BFBFDF72B
:10331000DDFB0022534BFDF7A7FA039106900D98B1
:10332000FDF730FBFDF7D2FB039B069AFDF782F910
:10333000059B089AFDF77EF9FDF704FCA06202AA3E
:103340002C2102980DF05EFD002804D0007857284B
:1033500000D04520287302AA2C2102980DF052FDBE
:10336000002802D00DF03DF9707002AA2C210298BD
:103370000DF048FD002802D00DF033F9B87002AA14
:103380002C2102980DF03EFD002802D00DF024F90A
:10339000A06402AA2C2102980DF034FD002802D06E
:1033A0000DF01AF9E06302AA2C2102980DF02AFD13
:1033B000002801D000783070DEE002AA2C210298AB
:1033C0000DF020FD304D002802D00DF00AF92870D4
:1033D00002AA2C2102980DF015FD002802D00DF054
:1033E00000F968706878012801D10020A87002AA4D
:1033F0002C2102980DF006FD002802D00DF0F1F806
:10340000F870002602AA2C2102980DF0FBFC00287F
:103410003ED00DF0E6F8A978090137E04750524D4B
:1034200043000000240600204750474741000000A9
:103430004750475356000000475047534100000093
:10344000E80800202532642532642532642E2534B4
:10345000640000002532642532642E2534640000A7
:10346000804F224100004E402533642532642E25D2
:10347000346400006F1283C0CAA1FD3F2532642569
:1034800032642532640000002800002009194866D3
:1034900002AA2C2102980DF0B5FC002805D00DF0F1
:1034A000A0F8A97809010919886602AA2C210298B6
:1034B0000DF0A8FC002805D00DF093F8A9780901BB
:1034C0000919C86602AA2C2102980DF09BFC07007E
:1034D00005D00DF086F8A978090109190867A878C0
:1034E000401CA870002F47D0761CF6B2042E89D35A
:1034F00042E002AA2C2102980DF084FC002802D0A0
:103500000DF06FF8B07002AA2C2102980DF07AFC31
:10351000002802D00DF065F8F070002502AA2C21D9
:1035200002980DF06FFC002804D00DF05AF86119D4
:10353000403188756D1CEDB20C2DEFD302AA2C2101
:1035400002980DF05FFC002802D00DF045F8606491
:1035500002AA2C2102980DF055FC002802D00DF093
:103560003BF8A06402AA2C2102980DF04BFC002825
:1035700002D00DF031F8E0640649206A884201DD8E
:10358000002020620449A06A884201DD0020A06278
:1035900001203EE50000B4420000344330B5194933
:1035A0008A68012A1DD00C46E5780023164A2C02B1
:1035B000242817D00D79FE2D04D2A4186419607048
:1035C0006D1C0D71C868401CC860FF2809D1C878FF
:1035D000000213548218087912185370401C0871A5
:1035E000CB6030BD012010556D1CECB2CC70052CA9
:1035F00000D9CB70CC78242524021355A41865700B
:103600000871DFE728000020FC0800200649800040
:1036100009580648091803D0C14203D0002070475A
:103620000120704702207047201C0108702FFCFF0A
:1036300010B5094A0021CB00D458844207D89B1802
:103640009B68834203D9C8008018007910BD491CCB
:10365000C9B21529EFD3FEE74C160108F8B50546A7
:1036600004464035287D0026012808D00120287511
:10367000206881688907890F01290ED101E00220A5
:10368000F8BD0168C90708D0A06D20210843A065D6
:103690000126002028753046F8BDA16DFF220132B9
:1036A000914302221143A165C1688907890F0091E6
:1036B000C16889088900C160206881689207114348
:1036C000816000F0A7FD07460EE000F0A3FDC01BDF
:1036D0000A2809D9A06D0221884310210843A0655A
:1036E000002028750120F8BD206880680028ECDBE8
:1036F0002068C168009A1143C160A06D80088000F5
:10370000401CA065C5E70000F8B506460D464036EA
:10371000317D01290DD00121317501688A68520778
:1037200009D5816D2022114381650020307501206B
:10373000F8BD0220F8BD174B6A68D80547109A42B9
:10374000154C8A6A2B6812D05B035B0B1A438A62A2
:103750002968490305D5A1680143A1600A20FDF746
:10376000E3FD2868800312D5A06838430EE05B03B0
:103770005B0B9A438A622968490302D5A168814399
:10378000A1602868800302D5A068B843A06000202B
:103790003075F8BD01100000002701400068006C82
:1037A0007047000070B5040006D0A06D26460025C5
:1037B0004036002802D006E0012070BDE565357571
:1037C000204600F0D1F8A06DC00603D421688868B7
:1037D000400705D5A06D10210843A0653575EBE7BE
:1037E000A06DFF220132904302221043A065886839
:1037F0008207920F5A48012A02D10A68D2072BD1B8
:10380000032362689B079A4205D05B429A4202D02A
:103810005B009A4209D10A69920092080A61216804
:103820000A6963681A430A610CE00A699200920807
:103830000A6181680F229204914381608168626805
:10384000114381602168CA6818239A43CA602168BD
:10385000CA68A3681A43CA6081680122520691436C
:1038600081608168228F52061143816020688168DF
:10387000C90004D4816801221207114381602068C5
:10388000C168384A1140C1602169E068022923D02B
:1038900000210843216A226B490352001143084367
:1038A000616B0843A16989030843E169C9030843BF
:1038B0002168CA681043C860A06A0146FF39C2394E
:1038C00005D0E16A08432168CA681043C860606A8D
:1038D0000121012802D00BE00421DAE7206A002848
:1038E00023D0A06D20221043A065E06D0843E06561
:1038F000206C012820681FD00169C90703D0016925
:1039000049084900016120684169C908C90041614D
:1039100020684169E26B11434161E565A06D800853
:103920008000401CA065002070BD2068C268012393
:103930001B041A43C260DBE70269FF239B009A4322
:10394000026120680269636CE66C1A43A36C33431E
:103950001A430261206802690A430261D3E700004A
:10396000002701401902FEFF7047F8B50446406980
:10397000254640350E4608280BD02068C068C00791
:1039800009D0A06D20210843A065002028750120E2
:10399000F8BD082700E00C2700F03CFC009011E087
:1039A000701C0FD0002E05D000F034FC0099401A96
:1039B000B04207D9A06D04210843A06500202875F6
:1039C0000320F8BD206800683842E9D0A06D0121CD
:1039D00049020843A0652068C16809058A0F0C21C7
:1039E000002A1AD1226A002A17D10268120714D5B8
:1039F000826853070122002B08DB43688B43436036
:103A0000A06D130298431043A06506E0A06D20232B
:103A10001843A065E06D1043E065A069002801D15E
:103A2000206801600020F8BD70B5044621680020C0
:103A30008968490721D425464035297D01291CD0B4
:103A400001212975E169012904D02046FDF77EFC9A
:103A5000002811D1A16D0A4A1140FF220132114301
:103A6000A1650021E165297522681C21116021688A
:103A70008A6804231A438A6070BD022070BD00006A
:103A8000FEF1FFFF02484168490849004160704764
:103A90000058014002484168042291434160704748
:103AA000005801400248416802229143416070473A
:103AB0000058014070B50024024620325179022995
:103AC00003D00421C16301243CE001680B680E258A
:103AD000AB430B6001680B685B085B000B601A4B23
:103AE0000168994201D1012121E0174B1433994219
:103AF00001D110211BE0144B2833994201D18915C3
:103B000015E0114B3C33994201D189140FE00E4B63
:103B10005033994202D10121090408E00A4B643371
:103B2000994202D10121090501E001210906064B54
:103B3000083B59600121517100211171816B0029ED
:103B400000D08847204670BD08000240F8B5044602
:103B50009D4801689C4A9C4E9B4F08322068130484
:103B60001C363037904201D108221EE0B04201D10C
:103B700080221AE0B84202D10122D20215E0924A14
:103B80004432904202D10122D2030EE08E4A5832D2
:103B9000904201D11A4608E08B4A6C32904202D121
:103BA0000122D20501E00122D2062546114020352E
:103BB00000293BD00168090738D5016808229143E4
:103BC0000160814920680831884201D108201EE047
:103BD000B04201D180201AE0B84202D10120C002D7
:103BE00015E079494431884202D10120C0030EE03A
:103BF00075495831884201D1184608E072496C3144
:103C0000884202D10120C00501E00120C0066E49B2
:103C10004860E06B01210843E063042068710020E4
:103C20002871616B002901D02046884766480168E9
:103C3000654A206808321315904201D104221EE023
:103C4000B04201D140221AE0B84201D11A4616E032
:103C50005D4A4432904202D1012292030FE05A4A57
:103C60005832904202D10122920408E0564A6C3246
:103C7000904202D10122920501E0012292061142F6
:103C800038D00168490735D50168890603D4026830
:103C900004218A4302604C4920680831884201D1DE
:103CA00004201EE0B04201D140201AE0B84201D108
:103CB000184616E044494431884202D1012080036D
:103CC0000FE041495831884202D10120800408E0C8
:103CD0003D496C31884202D10120800501E001207C
:103CE00080063949486005206871216B002901D0A0
:103CF0002046884734480168334A20680832531503
:103D0000904201D102221EE0B04201D120221AE0ED
:103D1000B84201D11A4616E02B4A4432904202D1F1
:103D2000012252030FE0284A5832904202D1012268
:103D3000520408E0244A6C32904202D1012252051A
:103D400001E00122520611423CD00168890739D5B1
:103D50000168890603D401680222914301601A496F
:103D600020680831884201D102201EE0B04201D112
:103D700020201AE0B84201D1184616E01249443119
:103D8000884202D1012040030FE00F495831884298
:103D900002D10120400408E00B496C31884202D175
:103DA0000120400501E00120400607494860E06B22
:103DB000E0630120687100202871E16A002901D0C8
:103DC00020468847F8BD00000000024070B500287A
:103DD00005D0034620335979002902D003E00120A1
:103DE00070BD002119710221597104682268374998
:103DF000C5680A40816846692943056935432943F6
:103E000085692943C5692943056A2943114321600E
:103E10002F492F4C02687831A24206D18A6A1209D2
:103E200012018A628A6A406849E0294C1434A2422D
:103E300007D18A6AF024A2438A628A6A4068000134
:103E40003DE0234C2834A24208D18A6A0F24240280
:103E5000A2438A628A6A4068000230E01C4C3C340B
:103E6000A24208D18A6A0F242403A2438A628A6A82
:103E70004068000323E0164C5034A24208D18A6AFD
:103E80000F242404A2438A628A6A8088000416E010
:103E90000F4C6434A24208D18A6A0F242405A2433D
:103EA0008A628A6A8088000509E08A4209D18A6AA2
:103EB0000F242406A2438A628A6A0079000602431C
:103EC0008A6201205871002070BD00000FC0FFFF02
:103ED00008000240F8B5044620300579012D1ED0B7
:103EE000012505710226467120680768AF43076007
:103EF0002046FEF741FE20680168314301602068DA
:103F000001680422114301602068016808221143FE
:103F1000016020680168294301600020F8BD02208B
:103F2000F8BD01B50098FEF736FE08BDF8B51A4E8B
:103F30000546307C0F46012807D001203074174811
:103F4000FEF7FCFE010002D021E00220F8BD0020B7
:103F5000C04338606C6814E02046FEF791FE0F48BD
:103F6000FEF7ECFE01460E48426808239A43426081
:103F7000426843159A434260002901D03C6006E044
:103F80008034A8686A68C0018018A042E4D8002084
:103F900030740846F8BD0000A80F002050C3000090
:103FA0000020024003484168022211434160002082
:103FB0007047000000200240F8B50C4C1646207CEB
:103FC0000F46012808D0012020740948FEF7B6FEEC
:103FD0000025002802D006E00220F8BD65613E60A1
:103FE0000348FEF7ABFE2574F8BD0000A80F0020C3
:103FF00050C300000948416889070CD54168C907CA
:1040000003D00749C1600749C160074901610749F9
:10401000016100207047012070470000002002402D
:10402000EFCDAB8905040302BFAE9D8C16151413AA
:1040300070B5054601F022FE0124A403A5420AD171
:104040000CF084F804F088FE0348446103480168DA
:1040500004221143016070BD000401400070004063
:1040600010B504494A69024202D04861FFF7E0FFF7
:1040700010BD000000040140F8B500230124A7E0B2
:1040800027469F403A4070D04D68022D01D0122D36
:1040900014D1DD08AD002D1800952D6A5E07AC46E1
:1040A000F50E0F26AE46AE406546B543AC460E69EA
:1040B0007546AE4065462E43009D2E624D68012D2B
:1040C00005D0022D03D0112D01D0122D16D18568F7
:1040D0000326AC465D00AE46AE406546B543AC46F1
:1040E000CE687546AE4065462E43866046680D79BB
:1040F000BE43ED06ED0F9D403543456006685F0009
:104100000325BD40AE46AE430D79B446AE07B60FAB
:10411000BE4065462E430660C6687546AE438D6850
:10412000BD403543C5604D68ED0050D52B4D6E6BDD
:1041300026436E639E082A4DB6007519AC46AD68DD
:104140009E07360F0F27B740BD4305273F07B842EC
:1041500001D100271AE0234FB84201D1012715E011
:10416000214FB84202D1022710E030E01F4FB84281
:1041700001D103270AE01E4FB84201D1042705E010
:104180001C4FB84201D1052700E00627B7402F4356
:104190006546AF60184D2E684F689643FF0300D503
:1041A00016432E606E684F689643BF0300D51643D2
:1041B0006E60AE684F689643FF0200D51643AE604E
:1041C000EE684F689643BF0200D51643EE605B1C55
:1041D0000A681546DD4000D052E7F8BD00100240E5
:1041E000000001400004005000080050000C005086
:1041F00000100050001C00500004014000690840FD
:1042000000D001207047002A01D08161704781628F
:1042100070470000014800687047000078010020E6
:1042200002480168491C01607047000078010020C5
:1042300010B506480168022211430160032000F016
:1042400007F800F007F8002010BD00000020024031
:104250000020704710B50848816B02041143816348
:1042600000F02CF800F022F80448016808221143FD
:10427000016000F013F810BD001002400020024061
:10428000C106C90E0120884001490860704700003E
:1042900000E100E010B503F0B9FF10BD024801686D
:1042A0000215114301607047007000400248016828
:1042B00042151143016070470070004002480168D8
:1042C000102291430160704700700040094B1A684A
:1042D0009208920002431A600748026904239A4335
:1042E0000261012903D040BF20BF20BF704730BF0B
:1042F000704700000070004000ED00E00A4B1A68B3
:104300009208920002431A6008480369042213438A
:104310000361012906D040BF20BF20BF016991433E
:104320000161704730BFF9E70070004000ED00E028
:10433000F8B56649074601250020ED03624B634A44
:104340004031102F6FD011DC012F77D0022F6CD0AD
:10435000042F6BD0082F24D1C968032424032140E3
:104360007BD0BD026C10A9427CD0A0E00326584C43
:104370003604202F0BD0402F35D0FF3F012F10D116
:10438000C968314069D07C04A1426BD096E00B69CA
:104390000969012731403F04B94203D1990559E029
:1043A0002846F8BD01256D04A94203D19907F8D527
:1043B0004848F8BDB142FCD111688903F9D51168AC
:1043C00003200005014001200005091A09D0091A3F
:1043D00005D0814201D14048F8BD2046F8BD3F4894
:1043E000F8BD3F48F8BDC9680125AD06294006D093
:1043F000A942F7D191688907F4D53A48F8BD116808
:104400008901FBD5D068D1688002374D000F2D5C43
:104410000802810FD068491CC0030AD41068C00686
:1044200005D5204606E045E008E023E030E01846E8
:1044300000E02E486843FBF75BFEF8BDCC68A4079C
:10444000A40F0CD0022C0DD0012C10D0032CF4D1D1
:10445000096989050029A3DBF8BD16E002E000F038
:10446000D1F9F9E711684907F6D51846F4E700F0E5
:10447000D9F9F1E7CC680C26344006D0082CF1D0ED
:10448000042CF4D00C2CE3D0E6E700F0ABF9E3E722
:10449000CC680326B6023440F7D00127FF02BC42A5
:1044A000E0D07A109442E2D0B442D1D0D4E7A14215
:1044B000DDD0D1E7916B4902E7D4CDE701221204A8
:1044C0009142D4D0C8E700000024F400001002405C
:1044D00000093D008890000020A1070040420F0025
:1044E00080841E00006CDC027417010800127A0040
:1044F000F8B5044600785E4D800672D55C4E002704
:10450000403EB06BC00004D4B06BA9050843B06353
:10451000012758480168C90511D401688215114363
:104520000160FFF777FE009005E0FFF773FE00994A
:10453000401A642837D84F480068C005F5D532685E
:104540000321090560680A400140914208D08103B7
:10455000890F032904D13168890301D50120F8BDF1
:104560002A69032109040A4022D0084090421FD042
:10457000207880061CD528692A6988430121C9044E
:104580000A432A612A698A432A612861C0050FD536
:10459000FFF740FE009008E0FFF73CFE0099411A4B
:1045A0003548814201D90320F8BD28698005F3D53B
:1045B00061688803800F032805D1326800058243B3
:1045C00001400A43326028690322616812041140E5
:1045D00008432861002F04D0B06B012109078843EC
:1045E000B0632078C00705D0E868A1688008800023
:1045F0000843E8602078800705D5E8680C218843E7
:10460000E1680843E8602078400706D5E8680321A0
:104610008902884321690843E8602078000706D5AD
:10462000E86803210903884361690843E86020883A
:10463000C00506D5E868032109048843A169084339
:10464000E8602078400606D5E8680121890688439D
:10465000216A0843E8602078000606D5E86803214F
:1046600089048843E1690843E8600020F8BD000040
:10467000401002400070004088130000F8B5054665
:1046800053480E460068C007C00FB0420AD25048D7
:10469000016849084900314301600068C007C00F44
:1046A000B0426FD128784B4C800705D5E068F021E7
:1046B0008843A9680843E0602878C00752D068683A
:1046C000022817D0032818D02168012818D089059E
:1046D000002957DAE168890889000143E160FFF7A2
:1046E00099FD69680746022912D003291CD00129C7
:1046F00026D033E021688903EAE721688901E7E7EA
:104700004907E5E7FFF786FDC11B3348814223D8FF
:10471000E0680007800F0228F4D123E0FFF77AFD5C
:10472000C11B2D48814217D8E0680007800F03287D
:10473000F4D117E0FFF76EFDC11B274881420BD86B
:10474000E0680007800F0128F4D10BE0FFF762FD5D
:10475000C11B2148814201D90320F8BDE068000750
:10476000800FF3D11A480168C907C90FB1420BD9AC
:10477000016849084900314301600068C007C00F63
:10478000B04201D00120F8BD2878400706D5E06886
:10479000072109028843E9680843E0602878000798
:1047A00007D5E0680721C90288432969C900084381
:1047B000E06000F037F8E168084A0906090F515C2B
:1047C000C840074908600320FFF742FD0020F8BDFC
:1047D0000020024000100240881300006417010806
:1047E00074010020044805490068C968044A490565
:1047F000490F515CC840704774010020001002400E
:104800007D170108044805490068C968044A8904FD
:10481000490F515CC84070477401002000100240ED
:104820007D17010810B5184AD1680C2008400428EB
:104830000BD0082810D00C2810D050680004410F6D
:104840000120C003491C884010BD1068C00601D576
:104850000E4810BD0E4810BD0E4810BD88020E4B0C
:10486000000F185C0902D368890F491CDB0301D5CE
:10487000084A05E01268D20601D5044A00E0044A5D
:104880005043FBF735FC10BD0010024000093D000D
:104890000024F40000127A0074170108F8B50446E9
:1048A0000078FF4DC0074CD0E8680007800F022851
:1048B00007D0E8680007800F032809D1E868C00323
:1048C00006D5286880033CD56068002875D038E09C
:1048D000012062680004824203D1296801432960F3
:1048E00011E0052301211B0489049A422A6802D1A0
:1048F0000A432A60F1E782432A602A680240009254
:10490000286888432860606800280DD0FFF782FC83
:104910000646E44F04E0FFF77DFC801BB8427DD8DB
:1049200028688003F7D50CE0FFF774FC0646DD4FDE
:1049300004E0FFF76FFC801BB842F0D828688003C2
:10494000F7D42078800741D5E8681F270007800F3B
:104950003F02012807D0E8680007800F032809D12B
:10496000E868C00306D42868400717D5E068012826
:1049700023D113E0E068002817D029680922914369
:1049800001432960FFF746FC064604E0FFF742FCBE
:10499000801B0228C3D828684007F7D568682169BA
:1049A000B84309020843686010E0286840084000E6
:1049B0002860FFF72FFC064605E090E0FFF72AFC91
:1049C000801B0228ABD828684007F7D42078C0069F
:1049D00076D5E868B44E0007800F0BD0E069002858
:1049E0005DD02868FF21013108432860FFF712FCE1
:1049F000074644E02868800502D5E06900286ED0AB
:104A0000606A69683140884212D904F097FC002836
:104A1000AED16868616AB043084300E0E4E06860D2
:104A20006868218C0002000A0906084368600FE0EC
:104A30006968B143014369606868218C0002000A1B
:104A4000090608436860606A04F078FC00288FD18A
:104A5000606A410B0120C003491C8840E968934A01
:104A60000906090F515CC840914908600320FFF70F
:104A7000EFFB25E0FFF7CEFBC01B02288AD8286891
:104A80008005F7D56868616AB04308436860686864
:104A9000218C0002000A09060843686010E02968BA
:104AA000FF20013081432960FFF7B4FB064604E094
:104AB000FFF7B0FB801B022884D828688005F7D454
:104AC00020787C4E000723D560690028306910D01B
:104AD000012108433061FFF79DFB074605E009E12E
:104AE000FFF798FBC01B02287ED830698007F7D5F6
:104AF0000EE0400840003061FFF78CFB074604E001
:104B0000FFF788FBC01B02286ED830698007F7D4F6
:104B10002078400761D5A86B0027C00005D4A86B9A
:104B2000012109070843A863012763480168C905F3
:104B300011D40168821511430160FFF76BFB0090EF
:104B400005E0FFF767FB0099401A64284CD85A48E3
:104B50000068C005F5D5FF20A2680130824203D16C
:104B600031690143316111E001218902002A07D036
:104B700005231B029A4203D132690A433261EFE7EF
:104B8000326982433261306988433061A06800280D
:104B90000ED0FFF73FFB009006E0FFF73BFB0099CC
:104BA000411A404881421FD830698005F5D50DE093
:104BB000FFF730FB009006E0FFF72CFB0099411A4D
:104BC0003848814210D830698005F5D4002F04D0D0
:104BD000A96B012000078143A9632078800630D5A6
:104BE0003649A0694A1400E07DE0002816D0AB6881
:104BF00001200343AB606B6B03436B63086A104394
:104C00000862FFF707FB064604E0FFF703FB801B83
:104C1000022868D8A8688007F7D512E0A86840087D
:104C20004000A860086A90430862FFF7F3FA06465E
:104C300004E0FFF7EFFA801B022854D8A868800729
:104C4000F7D4A06A002853D0E9680907890F03291F
:104C500050D0012636060228286805D0B0432860C7
:104C6000FFF7D8FA044640E0B0432860FFF7D2FAD5
:104C7000074604E0FFF7CEFAC01B022833D82868A5
:104C80008001F7D4216BE06AEA680843616BFD2379
:104C90001B049A4311430843E860286830430FE03F
:104CA000001002408813000000E0000064170108B3
:104CB00074010020401002400070004000000140DC
:104CC0002860FFF7A7FA044604E0FFF7A3FA001BE9
:104CD000022808D828688001F7D509E0FFF79AFA7A
:104CE000001B022801D90320F8BD28688001F5D4F3
:104CF0000020F8BD0120F8BD30B5014620310A780A
:104D0000012A15D001220A7002234B700468CA23BD
:104D1000636204685323636203689C6820252C4304
:104D20009C600068FF2343624A700020087030BD19
:104D3000022030BD10B507F033FE10BDF8B50546B2
:104D400004462035287801281DD001202870022033
:104D500068702268CA205062226853205062FF2087
:104D600001300026FF2781421CD121688A688243D6
:104D70008A60206881680122120391438160FFF7F5
:104D800049FA009009E00220F8BDFFF743FA0099C4
:104D9000411A7D20C00081421BD82068C068C0072E
:104DA000F3D020E0206881680122520291438160A3
:104DB00020688168120191438160FFF72BFA00900F
:104DC0000DE0FFF727FA0099411A7D20C0008142CB
:104DD00005D920684762032068702E70F8BD2068EE
:104DE000C0688007EDD520684762012068702E708A
:104DF0000020F8BD10B500680B464068C021C943CB
:104E000001400002000ECC04D870E40E5C708C06E9
:104E1000A40E0904490F9C701970002A0AD104F0ED
:104E2000C9FAD870587804F0C5FA5870987804F028
:104E3000C1FA9870002010BD30B50B460168896A30
:104E40005960016809694904490C9960006804685F
:104E50000F482146014088024D04800E18706D0EE7
:104E600049065D70490E99706102490E4024214047
:104E7000D970002A0AD104F09DFA1870587804F00D
:104E800099FA5870987804F095FA9870002030BD1F
:104E90007F7F7F0070B5040005D0254620356878F7
:104EA000002802D006E0012070BD002028702046B6
:104EB00000F042F8022068702168CA204862216828
:104EC00053204862204604F088FAFF210028206819
:104ED00003D0416204206870E5E78268154B1A40F0
:104EE0008260226890686368A66918432369334327
:104EF000184390602268E068106120680269238985
:104F00001B041A4302612068C26880239A43C2606E
:104F10002068C26C92089200C264E2696069024330
:104F20002068C36C1A43C264206841620120687023
:104F3000002070BDBFFF8FFF00B597B00420009028
:104F400000200A90FF20013002906846FFF7A6FC7F
:104F5000002801D0FDF792FE20200E90C0020F9095
:104F60000EA8FFF7C5FA002801D0FDF787FE084814
:104F700001690122920411430161002211460220BD
:104F8000FFF788F90220FFF77BF917B000BD00009A
:104F900040100240FEB506460446203630780B46E7
:104FA000012842D0012030700220707020681D4618
:104FB000002720358068002A39D0400655D518785A
:104FC00004F0F8F9287804F0F5F9197898780904CC
:104FD00008435978DA780902120411430843297802
:104FE00009060843D9690843596908430546996980
:104FF0005868084300902168CA20486221685320FD
:105000004862FF205A6A0130802182424AD12268D8
:105010009368834393602268D0680840FF388238E1
:10502000D060FFF7F7F8019029E00220FEBD4006AE
:1050300000D4DF70187804F0C5F90204587804F041
:10504000C1F900020243987804F0BCF90243D87811
:1050500000040243287804F0B5F900060243D86939
:105060000243586902431546C1E7DF70AAE7FFF71C
:10507000D1F80199411A7D20C00081422AD82068C8
:10508000C068C007F3D02068C561216800984864F3
:1050900020688168FF2201321143816020688168A5
:1050A000120130E02068826801235B029A4382602B
:1050B0002068C2680A401D495118C160FFF7AAF86C
:1050C00001900EE0FFF7A6F80199411A7D20C0007B
:1050D000814206D92168FF20486203207070377032
:1050E000FEBD2068C0688007ECD520680562216895
:1050F000009888642068816801225202114381600F
:105100002068816812011143816009480268012109
:1051100049040A43026082680A4382602168FF20D2
:1051200048620120707037700020FEBD7FFDFFFFD8
:1051300000040140F8B505460446203528780B46A2
:10514000012815D001202870022068705878002AA4
:1051500010D004F02FF9987804F02CF9D8789E78C4
:10516000000406435878197800024903084316E002
:105170000220F8BDC10603D5EF2108400A3058705F
:10518000D87804F01FF90604587804F01BF90002DF
:105190000643987804F016F906431878400306434E
:1051A0002168CA204862216853204862204604F0E2
:1051B00014F90027002811D11048064020684660E5
:1051C0002068C16880229143C160206880688006A1
:1051D0000CD4204600F08CF8002807D02168FF206E
:1051E0004862042068702F700120F8BD2168FF20FC
:1051F0004862012068702F700020F8BD3FFFFF005B
:10520000F8B506460446203630780D4601280ED003
:105210000120307002207070206800278068002A0A
:1052200007D040061AD5287804F0C4F817E0022009
:10523000F8BD400600D4EF70287804F0C3F80204EB
:10524000687804F0BFF800020243A87804F0BAF8C6
:105250000243E8780004024300920BE0EF702978E3
:10526000A878090408436978EA780902120411430E
:10527000084300902168CA20486221685320486290
:10528000204604F0AAF800281FD1184900980840C9
:10529000216808602068816801229204914381603E
:1052A0002969E868084321688A6810438860206893
:1052B000C16880229143C1602068806880060CD458
:1052C000204600F015F8002807D02168FF2048622A
:1052D0000420707037700120F8BD2168FF204862FB
:1052E0000120707037700020F8BD00007F7F7F00C4
:1052F00070B504460068C168A0229143C160FEF702
:1053000089FF7D260546F60006E0FEF783FF401B79
:10531000B04201D9032070BD2068C0688006F4D572
:10532000002070BD70B5040006D025464035687C6D
:105330000026002802D005E0012070BD2E74204612
:1053400000F032F80220687420680168402291431E
:105350000160A168606822690843E168114308435D
:10536000616901220843A169520211400843E169C1
:105370000843216A0843A16A084321680860A069BC
:105380000421000C0840616A0843216848602168D4
:10539000E06A08612068C16992009143C161666555
:1053A00001206874002070BD7047F8B504460027DE
:1053B0006846078026464036707C012802D0707C03
:1053C00022287ED100290CD0002A0AD0002B08D038
:1053D000307C012875D001203074707C012802D007
:1053E00003E00120F8BD322070746765A263A387D3
:1053F000E3872163A386E386A764E7640125A06AA7
:105400006D03A84207D120680168A94301602068A4
:1054100001682943016020680168490603D40168D6
:105420004022114301600121FF20E268C9020530DA
:105430008A42616866D1002904D081420CD1E08E95
:10544000012809D1206B21680088C860206B801C6E
:105450002063E08E401EE086E08E002843D1A06AE3
:10546000A84246D12068016801221203114301605D
:105470003FE02068C068A16B0880A06B801CA0631F
:10548000B0E0002202212046069B05F00BF900281F
:105490007DD1206B21680088C860206B801C206350
:1054A000E08E401EE086E08E002808D1A06AA84267
:1054B00005D1206801680122120311430160002216
:1054C00000E0CCE001212046069B05F0EBF8002827
:1054D0007FD12068C068A16B0880A06B801CA0638E
:1054E000E08F401EE087E08E0028CAD16068002867
:1054F0007BD1002201212046069B05F0D3F800282D
:1055000067D1B6E7002904D081420BD1E08E012893
:1055100008D1206B411C216321680078C860E08EAF
:10552000401EE086E08E002845D1A06AA84205D141
:105530002068016801221203114301600022012149
:105540002046069B05F0AEF8002842D12068C068CE
:10555000A16B087046E0002202212046069B05F060
:10556000A1F8002835D1206B411C21632168007807
:10557000C860E08E401EE086E08E00280AD1A06A56
:10558000A84207D1206802680121090300E020E059
:105590000A430260002201212046069B05F082F8A2
:1055A000002816D12068C268A06B411CA16302705C
:1055B000E08F401EE087E08E0028CCD16068002894
:1055C00013D1002201212046069B05F06BF800282C
:1055D00002D00320F8BD08E02068C168A06B421C1F
:1055E000A2630170E08F401EE087A06AA8420FD13D
:1055F000002201212046069B05F054F8002802D025
:10560000606D02210EE02068C06869460880088845
:10561000012280212046069B05F044F8002804D092
:10562000606D202108436065D3E701207074A06A93
:10563000A84211D120688168C943C9060CD4616DA4
:105640000222114361650168A94301602068016875
:10565000294301603774C4E637740020BAE702209A
:10566000B8E7014660310A7A012A0DD001220A7298
:1056700024224A720068026802231A430260202032
:10568000487200200872704702207047FEB5054638
:1056900004466035287A00269446012811D001235B
:1056A0002B7224206872206802689A43026027687F
:1056B000B8680322120590430843B860002902D05D
:1056C00015E00220FEBD60460091019021686A4607
:1056D000928848681027B8431043486020684168A2
:1056E0006A4609029279090A12061143416020684C
:1056F000016819430160FEF78DFD094900910346D9
:10570000012100228905204607F015FD002801D05F
:10571000032601E020206872002028723046FEBD7A
:10572000FFFFFF0170477047F8B502680446D06973
:1057300011680607360F07D1830605D58B0603D5FA
:10574000204607F06DFBF8BD95682023002E65D03C
:10575000EE07F60FFF2721370F4037435ED0C7070C
:1057600006D0CF0504D501271762E26E3A43E26600
:10577000820708D5EA0706D0276802223A62E26E5D
:1057800004273A43E266420708D5EA0706D02568AF
:1057900004222A62E26E02252A43E266020709D544
:1057A0000A461A40324305D0236808221A62E36E83
:1057B0001343E366E26E002AC5D0800604D588064E
:1057C00002D5204607F02CFBE06E000703D42068CA
:1057D000806840061CD5204607F00AFB20688168D7
:1057E000490611D5826840218A438260606E002894
:1057F0000AD01D498163606EFEF75CF90028A2D0D3
:10580000606E816B8847F8BD2046FFF78CFFF8BDBE
:105810002046FFF788FF0020E066F8BD2646C70255
:105820006036002F0ADA6D0208D5012000051062EB
:105830007372B3722046FFF775FFF8BD050605D5F4
:105840000D0603D5204607F043FCF8BD4006FCD505
:105850004806FAD52046146840218C4314607372C0
:1058600000F044F9F8BD000059CD000870B50400FF
:1058700005D025466035687A002802D006E0012070
:1058800070BD00202872204600F026F8242068729F
:1058900020680168490849000160606A002802D058
:1058A000204607F0C3F9204607F0FAFA0128E7D0AE
:1058B000206841680922D2029143416020688168D2
:1058C0002A2291438160206801680122114301600E
:1058D000204607F011FA70BD70B5294C0546E06A04
:1058E0008AB001263043E062E06A30400990E06A05
:1058F0003043E062E06A30400990606BB1030843D6
:105900006063A06B09010843A06324216846FAF78D
:10591000A6FC04200090400204906846FEF7E8FDD3
:10592000206B30432063206B304009900BF0E4FD86
:105930000BF08AFD144C1348206000211020E16018
:10594000A0606161A161E161802021622061052088
:1059500060602046FEF73AFA2C66012211460B20C1
:10596000A562FEF797FC0B20FEF78AFC0122114688
:105970001D20FEF78FFC1D20FEF782FC0AB070BDD3
:105980000010024080000240E4280020F0B50346E9
:1059900060339C7A202C44D100290BD0002A09D0F6
:1059A000012584682D03AC4206D10669002E03D17F
:1059B000CE0701D00120F0BD1E7A012E31D0012684
:1059C0001E724165014640310A834A83FF27AC427B
:1059D00004D10269002A12D1134A0EE07F22002C62
:1059E00008D001252D07AC420AD10469002C04D04F
:1059F0003F2202E00469002C01D08A8300E08F83FB
:105A00000021C16622229A72197201688A683243A3
:105A10008A6000680168FF22213211430160002082
:105A2000F0BD0220F0BD0000FF01000010B50446EB
:105A300007488168002904D0E06E002801D104489D
:105A40008847012202492046FFF7A0FF10BD000051
:105A500008030020F8B5054604466035687A20281A
:105A60003BD100290BD0002A09D00123A0681B03D9
:105A7000984206D12069002803D1C80701D001202F
:105A8000F8BD287A012828D001202872204640300D
:105A9000E164028242820026E66621206872216E5D
:105AA0000F48C862216E0F480863216E0E48486394
:105AB000206E134686632768E16C3A462832206ED2
:105AC000FEF708FA2168402008622E72206881687B
:105AD0008022114381600020F8BD0220F8BD000043
